{"contracts/BasicDutchAuction.sol":{"BasicDutchAuction":{"abi":[{"inputs":[{"internalType":"uint256","name":"_reservePrice","type":"uint256"},{"internalType":"uint256","name":"_numBlocksAuctionOpen","type":"uint256"},{"internalType":"uint256","name":"_offerPriceDecrement","type":"uint256"}],"stateMutability":"nonpayable","type":"constructor"},{"anonymous":false,"inputs":[{"indexed":true,"internalType":"address","name":"bidder","type":"address"},{"indexed":false,"internalType":"uint256","name":"refundAmount","type":"uint256"},{"indexed":false,"internalType":"uint256","name":"contractBalance","type":"uint256"}],"name":"RefundInfo","type":"event"},{"inputs":[],"name":"auctionEndTime","outputs":[{"internalType":"uint256","name":"","type":"uint256"}],"stateMutability":"view","type":"function"},{"inputs":[],"name":"auctionEnded","outputs":[{"internalType":"bool","name":"","type":"bool"}],"stateMutability":"view","type":"function"},{"inputs":[],"name":"auctionStartTime","outputs":[{"internalType":"uint256","name":"","type":"uint256"}],"stateMutability":"view","type":"function"},{"inputs":[],"name":"bid","outputs":[],"stateMutability":"payable","type":"function"},{"inputs":[],"name":"getCurrentPrice","outputs":[{"internalType":"uint256","name":"","type":"uint256"}],"stateMutability":"view","type":"function"},{"inputs":[],"name":"initialPrice","outputs":[{"internalType":"uint256","name":"","type":"uint256"}],"stateMutability":"view","type":"function"},{"inputs":[],"name":"numBlocksAuctionOpen","outputs":[{"internalType":"uint256","name":"","type":"uint256"}],"stateMutability":"view","type":"function"},{"inputs":[],"name":"offerPriceDecrement","outputs":[{"internalType":"uint256","name":"","type":"uint256"}],"stateMutability":"view","type":"function"},{"inputs":[],"name":"reservePrice","outputs":[{"internalType":"uint256","name":"","type":"uint256"}],"stateMutability":"view","type":"function"},{"inputs":[],"name":"seller","outputs":[{"internalType":"address payable","name":"","type":"address"}],"stateMutability":"view","type":"function"}],"evm":{"bytecode":{"linkReferences":{},"object":"60806040523480156200001157600080fd5b5060405162000e4038038062000e40833981810160405281019062000037919062000268565b6200005367bfa5582d24f44f7560c01b6200022560201b60201c565b6200006f67f7a0c2a9ccd289d160c01b6200022560201b60201c565b336000806101000a81548173ffffffffffffffffffffffffffffffffffffffff021916908373ffffffffffffffffffffffffffffffffffffffff160217905550620000cb676c9928393075868860c01b6200022560201b60201c565b82600181905550620000ee67a96c0f68ccda189d60c01b6200022560201b60201c565b8160028190555062000111673995b9419145b91c60c01b6200022560201b60201c565b80600381905550620001346729a74dce63bbfc7c60c01b6200022560201b60201c565b4360058190555062000157671a79f98bcc27604c60c01b6200022560201b60201c565b600254600554620001699190620002f3565b6006819055506200018b67705041b95b705c2960c01b6200022560201b60201c565b60035460016002546200019f91906200032e565b620001ab919062000369565b600154620001ba9190620002f3565b600481905550620001dc67cfd94b5834a59cc660c01b6200022560201b60201c565b600454600781905550620002016725c54502d7c34bf560c01b6200022560201b60201c565b6000600860006101000a81548160ff021916908315150217905550505050620003b4565b50565b600080fd5b6000819050919050565b62000242816200022d565b81146200024e57600080fd5b50565b600081519050620002628162000237565b92915050565b60008060006060848603121562000284576200028362000228565b5b6000620002948682870162000251565b9350506020620002a78682870162000251565b9250506040620002ba8682870162000251565b9150509250925092565b7f4e487b7100000000000000000000000000000000000000000000000000000000600052601160045260246000fd5b600062000300826200022d565b91506200030d836200022d565b9250828201905080821115620003285762000327620002c4565b5b92915050565b60006200033b826200022d565b915062000348836200022d565b9250828203905081811115620003635762000362620002c4565b5b92915050565b600062000376826200022d565b915062000383836200022d565b925082820262000393816200022d565b91508282048414831517620003ad57620003ac620002c4565b5b5092915050565b610a7c80620003c46000396000f3fe6080604052600436106100915760003560e01c80638643337411610059578063864333741461014c578063d3642a8814610177578063db2e1eed146101a2578063eb54f9ec146101cd578063eb91d37e146101f857610091565b806308551a53146100965780631998aeef146100c15780631d0806ae146100cb5780633103ea62146100f65780634b449cba14610121575b600080fd5b3480156100a257600080fd5b506100ab610223565b6040516100b89190610747565b60405180910390f35b6100c9610247565b005b3480156100d757600080fd5b506100e06105a6565b6040516100ed919061077b565b60405180910390f35b34801561010257600080fd5b5061010b6105ac565b604051610118919061077b565b60405180910390f35b34801561012d57600080fd5b506101366105b2565b604051610143919061077b565b60405180910390f35b34801561015857600080fd5b506101616105b8565b60405161016e91906107b1565b60405180910390f35b34801561018357600080fd5b5061018c6105cb565b604051610199919061077b565b60405180910390f35b3480156101ae57600080fd5b506101b76105d1565b6040516101c4919061077b565b60405180910390f35b3480156101d957600080fd5b506101e26105d7565b6040516101ef919061077b565b60405180910390f35b34801561020457600080fd5b5061020d6105dd565b60405161021a919061077b565b60405180910390f35b60008054906101000a900473ffffffffffffffffffffffffffffffffffffffff1681565b61025b67f9f44d552f4cadae60c01b610703565b61026f67d414921fb643639a60c01b610703565b61028367a0d068c7c4741fa760c01b610703565b61029767e41f715ffa47f2ef60c01b610703565b600860009054906101000a900460ff16156102e7576040517f08c379a00000000000000000000000000000000000000000000000000000000081526004016102de90610829565b60405180910390fd5b6102fb67d70afd65b084bbe360c01b610703565b61030f67f691a2167fa8229660c01b610703565b610323672e069a2dc21e3ede60c01b610703565b6006544311156103755761034167a082f71eba6eaee360c01b610703565b6103556791fa69f5821f698060c01b610703565b6001600860006101000a81548160ff02191690831515021790555061038a565b61038967e41c765fefc9affd60c01b610703565b5b61039e67463f440e0cd9dbfd60c01b610703565b6103b16684841744ba636660c01b610703565b6103c5670b24ce234b2e73a460c01b610703565b60065443111561040a576040517f08c379a0000000000000000000000000000000000000000000000000000000008152600401610401906108bb565b60405180910390fd5b61041e6778e332ccd0d3943860c01b610703565b61043267a20e18665aed8ac560c01b610703565b61044667514ce381e7eed34e60c01b610703565b61045a67ad9459d701f0d35360c01b610703565b60035460016005544361046d919061090a565b610477919061093e565b6104819190610972565b60045461048e919061090a565b3410156104d0576040517f08c379a00000000000000000000000000000000000000000000000000000000081526004016104c790610a26565b60405180910390fd5b6104e46733ffd8ee5f2c9ca060c01b610703565b6104f86767f92265542ad0ce60c01b610703565b61050c67c359bf0e63ca87f360c01b610703565b60008054906101000a900473ffffffffffffffffffffffffffffffffffffffff1673ffffffffffffffffffffffffffffffffffffffff166108fc6007549081150290604051600060405180830381858888f19350505050158015610574573d6000803e3d6000fd5b5061058967761c002b3f88f6e460c01b610703565b6001600860006101000a81548160ff021916908315150217905550565b60045481565b60025481565b60065481565b600860009054906101000a900460ff1681565b60035481565b60015481565b60055481565b60006105f3671dd21734e3a48ea560c01b610703565b610607675486f18a1093bab160c01b610703565b61061b67b536078053afc18860c01b610703565b60006005544361062b919061090a565b9050610641672f7de1fb4d9c2d7060c01b610703565b6106556750d65afd85bed8a860c01b610703565b60025481106106a557610672674329bce173f2c0cd60c01b610703565b610686674b1a9240bf491e4c60c01b610703565b61069a67e87034bb8e111c2f60c01b610703565b600154915050610700565b6106b967f8ab49d41ee336cf60c01b610703565b6106cd676fbc794c26914c7d60c01b610703565b6106e16706dfe361a130d92660c01b610703565b600354816106ef9190610972565b6004546106fc919061090a565b9150505b90565b50565b600073ffffffffffffffffffffffffffffffffffffffff82169050919050565b600061073182610706565b9050919050565b61074181610726565b82525050565b600060208201905061075c6000830184610738565b92915050565b6000819050919050565b61077581610762565b82525050565b6000602082019050610790600083018461076c565b92915050565b60008115159050919050565b6107ab81610796565b82525050565b60006020820190506107c660008301846107a2565b92915050565b600082825260208201905092915050565b7f41756374696f6e2068617320616c726561647920656e64656400000000000000600082015250565b60006108136019836107cc565b915061081e826107dd565b602082019050919050565b6000602082019050818103600083015261084281610806565b9050919050565b7f41756374696f6e2068617320657863656564656420746865206d6178696d756d60008201527f206e756d626572206f6620626c6f636b73000000000000000000000000000000602082015250565b60006108a56031836107cc565b91506108b082610849565b604082019050919050565b600060208201905081810360008301526108d481610898565b9050919050565b7f4e487b7100000000000000000000000000000000000000000000000000000000600052601160045260246000fd5b600061091582610762565b915061092083610762565b9250828203905081811115610938576109376108db565b5b92915050565b600061094982610762565b915061095483610762565b925082820190508082111561096c5761096b6108db565b5b92915050565b600061097d82610762565b915061098883610762565b925082820261099681610762565b915082820484148315176109ad576109ac6108db565b5b5092915050565b7f42696420616d6f756e74206973206c657373207468616e20746865206375727260008201527f656e742070726963650000000000000000000000000000000000000000000000602082015250565b6000610a106029836107cc565b9150610a1b826109b4565b604082019050919050565b60006020820190508181036000830152610a3f81610a03565b905091905056fea2646970667358221220a954b4fef61c3280c41e0a8dd30349a6765907b9c882dcc7e4100175cdcc73fe64736f6c63430008120033","opcodes":"PUSH1 0x80 PUSH1 0x40 MSTORE CALLVALUE DUP1 ISZERO PUSH3 0x11 JUMPI PUSH1 0x0 DUP1 REVERT JUMPDEST POP PUSH1 0x40 MLOAD PUSH3 0xE40 CODESIZE SUB DUP1 PUSH3 0xE40 DUP4 CODECOPY DUP2 DUP2 ADD PUSH1 0x40 MSTORE DUP2 ADD SWAP1 PUSH3 0x37 SWAP2 SWAP1 PUSH3 0x268 JUMP JUMPDEST PUSH3 0x53 PUSH8 0xBFA5582D24F44F75 PUSH1 0xC0 SHL PUSH3 0x225 PUSH1 0x20 SHL PUSH1 0x20 SHR JUMP JUMPDEST PUSH3 0x6F PUSH8 0xF7A0C2A9CCD289D1 PUSH1 0xC0 SHL PUSH3 0x225 PUSH1 0x20 SHL PUSH1 0x20 SHR JUMP JUMPDEST CALLER PUSH1 0x0 DUP1 PUSH2 0x100 EXP DUP2 SLOAD DUP2 PUSH20 0xFFFFFFFFFFFFFFFFFFFFFFFFFFFFFFFFFFFFFFFF MUL NOT AND SWAP1 DUP4 PUSH20 0xFFFFFFFFFFFFFFFFFFFFFFFFFFFFFFFFFFFFFFFF AND MUL OR SWAP1 SSTORE POP PUSH3 0xCB PUSH8 0x6C99283930758688 PUSH1 0xC0 SHL PUSH3 0x225 PUSH1 0x20 SHL PUSH1 0x20 SHR JUMP JUMPDEST DUP3 PUSH1 0x1 DUP2 SWAP1 SSTORE POP PUSH3 0xEE PUSH8 0xA96C0F68CCDA189D PUSH1 0xC0 SHL PUSH3 0x225 PUSH1 0x20 SHL PUSH1 0x20 SHR JUMP JUMPDEST DUP2 PUSH1 0x2 DUP2 SWAP1 SSTORE POP PUSH3 0x111 PUSH8 0x3995B9419145B91C PUSH1 0xC0 SHL PUSH3 0x225 PUSH1 0x20 SHL PUSH1 0x20 SHR JUMP JUMPDEST DUP1 PUSH1 0x3 DUP2 SWAP1 SSTORE POP PUSH3 0x134 PUSH8 0x29A74DCE63BBFC7C PUSH1 0xC0 SHL PUSH3 0x225 PUSH1 0x20 SHL PUSH1 0x20 SHR JUMP JUMPDEST NUMBER PUSH1 0x5 DUP2 SWAP1 SSTORE POP PUSH3 0x157 PUSH8 0x1A79F98BCC27604C PUSH1 0xC0 SHL PUSH3 0x225 PUSH1 0x20 SHL PUSH1 0x20 SHR JUMP JUMPDEST PUSH1 0x2 SLOAD PUSH1 0x5 SLOAD PUSH3 0x169 SWAP2 SWAP1 PUSH3 0x2F3 JUMP JUMPDEST PUSH1 0x6 DUP2 SWAP1 SSTORE POP PUSH3 0x18B PUSH8 0x705041B95B705C29 PUSH1 0xC0 SHL PUSH3 0x225 PUSH1 0x20 SHL PUSH1 0x20 SHR JUMP JUMPDEST PUSH1 0x3 SLOAD PUSH1 0x1 PUSH1 0x2 SLOAD PUSH3 0x19F SWAP2 SWAP1 PUSH3 0x32E JUMP JUMPDEST PUSH3 0x1AB SWAP2 SWAP1 PUSH3 0x369 JUMP JUMPDEST PUSH1 0x1 SLOAD PUSH3 0x1BA SWAP2 SWAP1 PUSH3 0x2F3 JUMP JUMPDEST PUSH1 0x4 DUP2 SWAP1 SSTORE POP PUSH3 0x1DC PUSH8 0xCFD94B5834A59CC6 PUSH1 0xC0 SHL PUSH3 0x225 PUSH1 0x20 SHL PUSH1 0x20 SHR JUMP JUMPDEST PUSH1 0x4 SLOAD PUSH1 0x7 DUP2 SWAP1 SSTORE POP PUSH3 0x201 PUSH8 0x25C54502D7C34BF5 PUSH1 0xC0 SHL PUSH3 0x225 PUSH1 0x20 SHL PUSH1 0x20 SHR JUMP JUMPDEST PUSH1 0x0 PUSH1 0x8 PUSH1 0x0 PUSH2 0x100 EXP DUP2 SLOAD DUP2 PUSH1 0xFF MUL NOT AND SWAP1 DUP4 ISZERO ISZERO MUL OR SWAP1 SSTORE POP POP POP POP PUSH3 0x3B4 JUMP JUMPDEST POP JUMP JUMPDEST PUSH1 0x0 DUP1 REVERT JUMPDEST PUSH1 0x0 DUP2 SWAP1 POP SWAP2 SWAP1 POP JUMP JUMPDEST PUSH3 0x242 DUP2 PUSH3 0x22D JUMP JUMPDEST DUP2 EQ PUSH3 0x24E JUMPI PUSH1 0x0 DUP1 REVERT JUMPDEST POP JUMP JUMPDEST PUSH1 0x0 DUP2 MLOAD SWAP1 POP PUSH3 0x262 DUP2 PUSH3 0x237 JUMP JUMPDEST SWAP3 SWAP2 POP POP JUMP JUMPDEST PUSH1 0x0 DUP1 PUSH1 0x0 PUSH1 0x60 DUP5 DUP7 SUB SLT ISZERO PUSH3 0x284 JUMPI PUSH3 0x283 PUSH3 0x228 JUMP JUMPDEST JUMPDEST PUSH1 0x0 PUSH3 0x294 DUP7 DUP3 DUP8 ADD PUSH3 0x251 JUMP JUMPDEST SWAP4 POP POP PUSH1 0x20 PUSH3 0x2A7 DUP7 DUP3 DUP8 ADD PUSH3 0x251 JUMP JUMPDEST SWAP3 POP POP PUSH1 0x40 PUSH3 0x2BA DUP7 DUP3 DUP8 ADD PUSH3 0x251 JUMP JUMPDEST SWAP2 POP POP SWAP3 POP SWAP3 POP SWAP3 JUMP JUMPDEST PUSH32 0x4E487B7100000000000000000000000000000000000000000000000000000000 PUSH1 0x0 MSTORE PUSH1 0x11 PUSH1 0x4 MSTORE PUSH1 0x24 PUSH1 0x0 REVERT JUMPDEST PUSH1 0x0 PUSH3 0x300 DUP3 PUSH3 0x22D JUMP JUMPDEST SWAP2 POP PUSH3 0x30D DUP4 PUSH3 0x22D JUMP JUMPDEST SWAP3 POP DUP3 DUP3 ADD SWAP1 POP DUP1 DUP3 GT ISZERO PUSH3 0x328 JUMPI PUSH3 0x327 PUSH3 0x2C4 JUMP JUMPDEST JUMPDEST SWAP3 SWAP2 POP POP JUMP JUMPDEST PUSH1 0x0 PUSH3 0x33B DUP3 PUSH3 0x22D JUMP JUMPDEST SWAP2 POP PUSH3 0x348 DUP4 PUSH3 0x22D JUMP JUMPDEST SWAP3 POP DUP3 DUP3 SUB SWAP1 POP DUP2 DUP2 GT ISZERO PUSH3 0x363 JUMPI PUSH3 0x362 PUSH3 0x2C4 JUMP JUMPDEST JUMPDEST SWAP3 SWAP2 POP POP JUMP JUMPDEST PUSH1 0x0 PUSH3 0x376 DUP3 PUSH3 0x22D JUMP JUMPDEST SWAP2 POP PUSH3 0x383 DUP4 PUSH3 0x22D JUMP JUMPDEST SWAP3 POP DUP3 DUP3 MUL PUSH3 0x393 DUP2 PUSH3 0x22D JUMP JUMPDEST SWAP2 POP DUP3 DUP3 DIV DUP5 EQ DUP4 ISZERO OR PUSH3 0x3AD JUMPI PUSH3 0x3AC PUSH3 0x2C4 JUMP JUMPDEST JUMPDEST POP SWAP3 SWAP2 POP POP JUMP JUMPDEST PUSH2 0xA7C DUP1 PUSH3 0x3C4 PUSH1 0x0 CODECOPY PUSH1 0x0 RETURN INVALID PUSH1 0x80 PUSH1 0x40 MSTORE PUSH1 0x4 CALLDATASIZE LT PUSH2 0x91 JUMPI PUSH1 0x0 CALLDATALOAD PUSH1 0xE0 SHR DUP1 PUSH4 0x86433374 GT PUSH2 0x59 JUMPI DUP1 PUSH4 0x86433374 EQ PUSH2 0x14C JUMPI DUP1 PUSH4 0xD3642A88 EQ PUSH2 0x177 JUMPI DUP1 PUSH4 0xDB2E1EED EQ PUSH2 0x1A2 JUMPI DUP1 PUSH4 0xEB54F9EC EQ PUSH2 0x1CD JUMPI DUP1 PUSH4 0xEB91D37E EQ PUSH2 0x1F8 JUMPI PUSH2 0x91 JUMP JUMPDEST DUP1 PUSH4 0x8551A53 EQ PUSH2 0x96 JUMPI DUP1 PUSH4 0x1998AEEF EQ PUSH2 0xC1 JUMPI DUP1 PUSH4 0x1D0806AE EQ PUSH2 0xCB JUMPI DUP1 PUSH4 0x3103EA62 EQ PUSH2 0xF6 JUMPI DUP1 PUSH4 0x4B449CBA EQ PUSH2 0x121 JUMPI JUMPDEST PUSH1 0x0 DUP1 REVERT JUMPDEST CALLVALUE DUP1 ISZERO PUSH2 0xA2 JUMPI PUSH1 0x0 DUP1 REVERT JUMPDEST POP PUSH2 0xAB PUSH2 0x223 JUMP JUMPDEST PUSH1 0x40 MLOAD PUSH2 0xB8 SWAP2 SWAP1 PUSH2 0x747 JUMP JUMPDEST PUSH1 0x40 MLOAD DUP1 SWAP2 SUB SWAP1 RETURN JUMPDEST PUSH2 0xC9 PUSH2 0x247 JUMP JUMPDEST STOP JUMPDEST CALLVALUE DUP1 ISZERO PUSH2 0xD7 JUMPI PUSH1 0x0 DUP1 REVERT JUMPDEST POP PUSH2 0xE0 PUSH2 0x5A6 JUMP JUMPDEST PUSH1 0x40 MLOAD PUSH2 0xED SWAP2 SWAP1 PUSH2 0x77B JUMP JUMPDEST PUSH1 0x40 MLOAD DUP1 SWAP2 SUB SWAP1 RETURN JUMPDEST CALLVALUE DUP1 ISZERO PUSH2 0x102 JUMPI PUSH1 0x0 DUP1 REVERT JUMPDEST POP PUSH2 0x10B PUSH2 0x5AC JUMP JUMPDEST PUSH1 0x40 MLOAD PUSH2 0x118 SWAP2 SWAP1 PUSH2 0x77B JUMP JUMPDEST PUSH1 0x40 MLOAD DUP1 SWAP2 SUB SWAP1 RETURN JUMPDEST CALLVALUE DUP1 ISZERO PUSH2 0x12D JUMPI PUSH1 0x0 DUP1 REVERT JUMPDEST POP PUSH2 0x136 PUSH2 0x5B2 JUMP JUMPDEST PUSH1 0x40 MLOAD PUSH2 0x143 SWAP2 SWAP1 PUSH2 0x77B JUMP JUMPDEST PUSH1 0x40 MLOAD DUP1 SWAP2 SUB SWAP1 RETURN JUMPDEST CALLVALUE DUP1 ISZERO PUSH2 0x158 JUMPI PUSH1 0x0 DUP1 REVERT JUMPDEST POP PUSH2 0x161 PUSH2 0x5B8 JUMP JUMPDEST PUSH1 0x40 MLOAD PUSH2 0x16E SWAP2 SWAP1 PUSH2 0x7B1 JUMP JUMPDEST PUSH1 0x40 MLOAD DUP1 SWAP2 SUB SWAP1 RETURN JUMPDEST CALLVALUE DUP1 ISZERO PUSH2 0x183 JUMPI PUSH1 0x0 DUP1 REVERT JUMPDEST POP PUSH2 0x18C PUSH2 0x5CB JUMP JUMPDEST PUSH1 0x40 MLOAD PUSH2 0x199 SWAP2 SWAP1 PUSH2 0x77B JUMP JUMPDEST PUSH1 0x40 MLOAD DUP1 SWAP2 SUB SWAP1 RETURN JUMPDEST CALLVALUE DUP1 ISZERO PUSH2 0x1AE JUMPI PUSH1 0x0 DUP1 REVERT JUMPDEST POP PUSH2 0x1B7 PUSH2 0x5D1 JUMP JUMPDEST PUSH1 0x40 MLOAD PUSH2 0x1C4 SWAP2 SWAP1 PUSH2 0x77B JUMP JUMPDEST PUSH1 0x40 MLOAD DUP1 SWAP2 SUB SWAP1 RETURN JUMPDEST CALLVALUE DUP1 ISZERO PUSH2 0x1D9 JUMPI PUSH1 0x0 DUP1 REVERT JUMPDEST POP PUSH2 0x1E2 PUSH2 0x5D7 JUMP JUMPDEST PUSH1 0x40 MLOAD PUSH2 0x1EF SWAP2 SWAP1 PUSH2 0x77B JUMP JUMPDEST PUSH1 0x40 MLOAD DUP1 SWAP2 SUB SWAP1 RETURN JUMPDEST CALLVALUE DUP1 ISZERO PUSH2 0x204 JUMPI PUSH1 0x0 DUP1 REVERT JUMPDEST POP PUSH2 0x20D PUSH2 0x5DD JUMP JUMPDEST PUSH1 0x40 MLOAD PUSH2 0x21A SWAP2 SWAP1 PUSH2 0x77B JUMP JUMPDEST PUSH1 0x40 MLOAD DUP1 SWAP2 SUB SWAP1 RETURN JUMPDEST PUSH1 0x0 DUP1 SLOAD SWAP1 PUSH2 0x100 EXP SWAP1 DIV PUSH20 0xFFFFFFFFFFFFFFFFFFFFFFFFFFFFFFFFFFFFFFFF AND DUP2 JUMP JUMPDEST PUSH2 0x25B PUSH8 0xF9F44D552F4CADAE PUSH1 0xC0 SHL PUSH2 0x703 JUMP JUMPDEST PUSH2 0x26F PUSH8 0xD414921FB643639A PUSH1 0xC0 SHL PUSH2 0x703 JUMP JUMPDEST PUSH2 0x283 PUSH8 0xA0D068C7C4741FA7 PUSH1 0xC0 SHL PUSH2 0x703 JUMP JUMPDEST PUSH2 0x297 PUSH8 0xE41F715FFA47F2EF PUSH1 0xC0 SHL PUSH2 0x703 JUMP JUMPDEST PUSH1 0x8 PUSH1 0x0 SWAP1 SLOAD SWAP1 PUSH2 0x100 EXP SWAP1 DIV PUSH1 0xFF AND ISZERO PUSH2 0x2E7 JUMPI PUSH1 0x40 MLOAD PUSH32 0x8C379A000000000000000000000000000000000000000000000000000000000 DUP2 MSTORE PUSH1 0x4 ADD PUSH2 0x2DE SWAP1 PUSH2 0x829 JUMP JUMPDEST PUSH1 0x40 MLOAD DUP1 SWAP2 SUB SWAP1 REVERT JUMPDEST PUSH2 0x2FB PUSH8 0xD70AFD65B084BBE3 PUSH1 0xC0 SHL PUSH2 0x703 JUMP JUMPDEST PUSH2 0x30F PUSH8 0xF691A2167FA82296 PUSH1 0xC0 SHL PUSH2 0x703 JUMP JUMPDEST PUSH2 0x323 PUSH8 0x2E069A2DC21E3EDE PUSH1 0xC0 SHL PUSH2 0x703 JUMP JUMPDEST PUSH1 0x6 SLOAD NUMBER GT ISZERO PUSH2 0x375 JUMPI PUSH2 0x341 PUSH8 0xA082F71EBA6EAEE3 PUSH1 0xC0 SHL PUSH2 0x703 JUMP JUMPDEST PUSH2 0x355 PUSH8 0x91FA69F5821F6980 PUSH1 0xC0 SHL PUSH2 0x703 JUMP JUMPDEST PUSH1 0x1 PUSH1 0x8 PUSH1 0x0 PUSH2 0x100 EXP DUP2 SLOAD DUP2 PUSH1 0xFF MUL NOT AND SWAP1 DUP4 ISZERO ISZERO MUL OR SWAP1 SSTORE POP PUSH2 0x38A JUMP JUMPDEST PUSH2 0x389 PUSH8 0xE41C765FEFC9AFFD PUSH1 0xC0 SHL PUSH2 0x703 JUMP JUMPDEST JUMPDEST PUSH2 0x39E PUSH8 0x463F440E0CD9DBFD PUSH1 0xC0 SHL PUSH2 0x703 JUMP JUMPDEST PUSH2 0x3B1 PUSH7 0x84841744BA6366 PUSH1 0xC0 SHL PUSH2 0x703 JUMP JUMPDEST PUSH2 0x3C5 PUSH8 0xB24CE234B2E73A4 PUSH1 0xC0 SHL PUSH2 0x703 JUMP JUMPDEST PUSH1 0x6 SLOAD NUMBER GT ISZERO PUSH2 0x40A JUMPI PUSH1 0x40 MLOAD PUSH32 0x8C379A000000000000000000000000000000000000000000000000000000000 DUP2 MSTORE PUSH1 0x4 ADD PUSH2 0x401 SWAP1 PUSH2 0x8BB JUMP JUMPDEST PUSH1 0x40 MLOAD DUP1 SWAP2 SUB SWAP1 REVERT JUMPDEST PUSH2 0x41E PUSH8 0x78E332CCD0D39438 PUSH1 0xC0 SHL PUSH2 0x703 JUMP JUMPDEST PUSH2 0x432 PUSH8 0xA20E18665AED8AC5 PUSH1 0xC0 SHL PUSH2 0x703 JUMP JUMPDEST PUSH2 0x446 PUSH8 0x514CE381E7EED34E PUSH1 0xC0 SHL PUSH2 0x703 JUMP JUMPDEST PUSH2 0x45A PUSH8 0xAD9459D701F0D353 PUSH1 0xC0 SHL PUSH2 0x703 JUMP JUMPDEST PUSH1 0x3 SLOAD PUSH1 0x1 PUSH1 0x5 SLOAD NUMBER PUSH2 0x46D SWAP2 SWAP1 PUSH2 0x90A JUMP JUMPDEST PUSH2 0x477 SWAP2 SWAP1 PUSH2 0x93E JUMP JUMPDEST PUSH2 0x481 SWAP2 SWAP1 PUSH2 0x972 JUMP JUMPDEST PUSH1 0x4 SLOAD PUSH2 0x48E SWAP2 SWAP1 PUSH2 0x90A JUMP JUMPDEST CALLVALUE LT ISZERO PUSH2 0x4D0 JUMPI PUSH1 0x40 MLOAD PUSH32 0x8C379A000000000000000000000000000000000000000000000000000000000 DUP2 MSTORE PUSH1 0x4 ADD PUSH2 0x4C7 SWAP1 PUSH2 0xA26 JUMP JUMPDEST PUSH1 0x40 MLOAD DUP1 SWAP2 SUB SWAP1 REVERT JUMPDEST PUSH2 0x4E4 PUSH8 0x33FFD8EE5F2C9CA0 PUSH1 0xC0 SHL PUSH2 0x703 JUMP JUMPDEST PUSH2 0x4F8 PUSH8 0x67F92265542AD0CE PUSH1 0xC0 SHL PUSH2 0x703 JUMP JUMPDEST PUSH2 0x50C PUSH8 0xC359BF0E63CA87F3 PUSH1 0xC0 SHL PUSH2 0x703 JUMP JUMPDEST PUSH1 0x0 DUP1 SLOAD SWAP1 PUSH2 0x100 EXP SWAP1 DIV PUSH20 0xFFFFFFFFFFFFFFFFFFFFFFFFFFFFFFFFFFFFFFFF AND PUSH20 0xFFFFFFFFFFFFFFFFFFFFFFFFFFFFFFFFFFFFFFFF AND PUSH2 0x8FC PUSH1 0x7 SLOAD SWAP1 DUP2 ISZERO MUL SWAP1 PUSH1 0x40 MLOAD PUSH1 0x0 PUSH1 0x40 MLOAD DUP1 DUP4 SUB DUP2 DUP6 DUP9 DUP9 CALL SWAP4 POP POP POP POP ISZERO DUP1 ISZERO PUSH2 0x574 JUMPI RETURNDATASIZE PUSH1 0x0 DUP1 RETURNDATACOPY RETURNDATASIZE PUSH1 0x0 REVERT JUMPDEST POP PUSH2 0x589 PUSH8 0x761C002B3F88F6E4 PUSH1 0xC0 SHL PUSH2 0x703 JUMP JUMPDEST PUSH1 0x1 PUSH1 0x8 PUSH1 0x0 PUSH2 0x100 EXP DUP2 SLOAD DUP2 PUSH1 0xFF MUL NOT AND SWAP1 DUP4 ISZERO ISZERO MUL OR SWAP1 SSTORE POP JUMP JUMPDEST PUSH1 0x4 SLOAD DUP2 JUMP JUMPDEST PUSH1 0x2 SLOAD DUP2 JUMP JUMPDEST PUSH1 0x6 SLOAD DUP2 JUMP JUMPDEST PUSH1 0x8 PUSH1 0x0 SWAP1 SLOAD SWAP1 PUSH2 0x100 EXP SWAP1 DIV PUSH1 0xFF AND DUP2 JUMP JUMPDEST PUSH1 0x3 SLOAD DUP2 JUMP JUMPDEST PUSH1 0x1 SLOAD DUP2 JUMP JUMPDEST PUSH1 0x5 SLOAD DUP2 JUMP JUMPDEST PUSH1 0x0 PUSH2 0x5F3 PUSH8 0x1DD21734E3A48EA5 PUSH1 0xC0 SHL PUSH2 0x703 JUMP JUMPDEST PUSH2 0x607 PUSH8 0x5486F18A1093BAB1 PUSH1 0xC0 SHL PUSH2 0x703 JUMP JUMPDEST PUSH2 0x61B PUSH8 0xB536078053AFC188 PUSH1 0xC0 SHL PUSH2 0x703 JUMP JUMPDEST PUSH1 0x0 PUSH1 0x5 SLOAD NUMBER PUSH2 0x62B SWAP2 SWAP1 PUSH2 0x90A JUMP JUMPDEST SWAP1 POP PUSH2 0x641 PUSH8 0x2F7DE1FB4D9C2D70 PUSH1 0xC0 SHL PUSH2 0x703 JUMP JUMPDEST PUSH2 0x655 PUSH8 0x50D65AFD85BED8A8 PUSH1 0xC0 SHL PUSH2 0x703 JUMP JUMPDEST PUSH1 0x2 SLOAD DUP2 LT PUSH2 0x6A5 JUMPI PUSH2 0x672 PUSH8 0x4329BCE173F2C0CD PUSH1 0xC0 SHL PUSH2 0x703 JUMP JUMPDEST PUSH2 0x686 PUSH8 0x4B1A9240BF491E4C PUSH1 0xC0 SHL PUSH2 0x703 JUMP JUMPDEST PUSH2 0x69A PUSH8 0xE87034BB8E111C2F PUSH1 0xC0 SHL PUSH2 0x703 JUMP JUMPDEST PUSH1 0x1 SLOAD SWAP2 POP POP PUSH2 0x700 JUMP JUMPDEST PUSH2 0x6B9 PUSH8 0xF8AB49D41EE336CF PUSH1 0xC0 SHL PUSH2 0x703 JUMP JUMPDEST PUSH2 0x6CD PUSH8 0x6FBC794C26914C7D PUSH1 0xC0 SHL PUSH2 0x703 JUMP JUMPDEST PUSH2 0x6E1 PUSH8 0x6DFE361A130D926 PUSH1 0xC0 SHL PUSH2 0x703 JUMP JUMPDEST PUSH1 0x3 SLOAD DUP2 PUSH2 0x6EF SWAP2 SWAP1 PUSH2 0x972 JUMP JUMPDEST PUSH1 0x4 SLOAD PUSH2 0x6FC SWAP2 SWAP1 PUSH2 0x90A JUMP JUMPDEST SWAP2 POP POP JUMPDEST SWAP1 JUMP JUMPDEST POP JUMP JUMPDEST PUSH1 0x0 PUSH20 0xFFFFFFFFFFFFFFFFFFFFFFFFFFFFFFFFFFFFFFFF DUP3 AND SWAP1 POP SWAP2 SWAP1 POP JUMP JUMPDEST PUSH1 0x0 PUSH2 0x731 DUP3 PUSH2 0x706 JUMP JUMPDEST SWAP1 POP SWAP2 SWAP1 POP JUMP JUMPDEST PUSH2 0x741 DUP2 PUSH2 0x726 JUMP JUMPDEST DUP3 MSTORE POP POP JUMP JUMPDEST PUSH1 0x0 PUSH1 0x20 DUP3 ADD SWAP1 POP PUSH2 0x75C PUSH1 0x0 DUP4 ADD DUP5 PUSH2 0x738 JUMP JUMPDEST SWAP3 SWAP2 POP POP JUMP JUMPDEST PUSH1 0x0 DUP2 SWAP1 POP SWAP2 SWAP1 POP JUMP JUMPDEST PUSH2 0x775 DUP2 PUSH2 0x762 JUMP JUMPDEST DUP3 MSTORE POP POP JUMP JUMPDEST PUSH1 0x0 PUSH1 0x20 DUP3 ADD SWAP1 POP PUSH2 0x790 PUSH1 0x0 DUP4 ADD DUP5 PUSH2 0x76C JUMP JUMPDEST SWAP3 SWAP2 POP POP JUMP JUMPDEST PUSH1 0x0 DUP2 ISZERO ISZERO SWAP1 POP SWAP2 SWAP1 POP JUMP JUMPDEST PUSH2 0x7AB DUP2 PUSH2 0x796 JUMP JUMPDEST DUP3 MSTORE POP POP JUMP JUMPDEST PUSH1 0x0 PUSH1 0x20 DUP3 ADD SWAP1 POP PUSH2 0x7C6 PUSH1 0x0 DUP4 ADD DUP5 PUSH2 0x7A2 JUMP JUMPDEST SWAP3 SWAP2 POP POP JUMP JUMPDEST PUSH1 0x0 DUP3 DUP3 MSTORE PUSH1 0x20 DUP3 ADD SWAP1 POP SWAP3 SWAP2 POP POP JUMP JUMPDEST PUSH32 0x41756374696F6E2068617320616C726561647920656E64656400000000000000 PUSH1 0x0 DUP3 ADD MSTORE POP JUMP JUMPDEST PUSH1 0x0 PUSH2 0x813 PUSH1 0x19 DUP4 PUSH2 0x7CC JUMP JUMPDEST SWAP2 POP PUSH2 0x81E DUP3 PUSH2 0x7DD JUMP JUMPDEST PUSH1 0x20 DUP3 ADD SWAP1 POP SWAP2 SWAP1 POP JUMP JUMPDEST PUSH1 0x0 PUSH1 0x20 DUP3 ADD SWAP1 POP DUP2 DUP2 SUB PUSH1 0x0 DUP4 ADD MSTORE PUSH2 0x842 DUP2 PUSH2 0x806 JUMP JUMPDEST SWAP1 POP SWAP2 SWAP1 POP JUMP JUMPDEST PUSH32 0x41756374696F6E2068617320657863656564656420746865206D6178696D756D PUSH1 0x0 DUP3 ADD MSTORE PUSH32 0x206E756D626572206F6620626C6F636B73000000000000000000000000000000 PUSH1 0x20 DUP3 ADD MSTORE POP JUMP JUMPDEST PUSH1 0x0 PUSH2 0x8A5 PUSH1 0x31 DUP4 PUSH2 0x7CC JUMP JUMPDEST SWAP2 POP PUSH2 0x8B0 DUP3 PUSH2 0x849 JUMP JUMPDEST PUSH1 0x40 DUP3 ADD SWAP1 POP SWAP2 SWAP1 POP JUMP JUMPDEST PUSH1 0x0 PUSH1 0x20 DUP3 ADD SWAP1 POP DUP2 DUP2 SUB PUSH1 0x0 DUP4 ADD MSTORE PUSH2 0x8D4 DUP2 PUSH2 0x898 JUMP JUMPDEST SWAP1 POP SWAP2 SWAP1 POP JUMP JUMPDEST PUSH32 0x4E487B7100000000000000000000000000000000000000000000000000000000 PUSH1 0x0 MSTORE PUSH1 0x11 PUSH1 0x4 MSTORE PUSH1 0x24 PUSH1 0x0 REVERT JUMPDEST PUSH1 0x0 PUSH2 0x915 DUP3 PUSH2 0x762 JUMP JUMPDEST SWAP2 POP PUSH2 0x920 DUP4 PUSH2 0x762 JUMP JUMPDEST SWAP3 POP DUP3 DUP3 SUB SWAP1 POP DUP2 DUP2 GT ISZERO PUSH2 0x938 JUMPI PUSH2 0x937 PUSH2 0x8DB JUMP JUMPDEST JUMPDEST SWAP3 SWAP2 POP POP JUMP JUMPDEST PUSH1 0x0 PUSH2 0x949 DUP3 PUSH2 0x762 JUMP JUMPDEST SWAP2 POP PUSH2 0x954 DUP4 PUSH2 0x762 JUMP JUMPDEST SWAP3 POP DUP3 DUP3 ADD SWAP1 POP DUP1 DUP3 GT ISZERO PUSH2 0x96C JUMPI PUSH2 0x96B PUSH2 0x8DB JUMP JUMPDEST JUMPDEST SWAP3 SWAP2 POP POP JUMP JUMPDEST PUSH1 0x0 PUSH2 0x97D DUP3 PUSH2 0x762 JUMP JUMPDEST SWAP2 POP PUSH2 0x988 DUP4 PUSH2 0x762 JUMP JUMPDEST SWAP3 POP DUP3 DUP3 MUL PUSH2 0x996 DUP2 PUSH2 0x762 JUMP JUMPDEST SWAP2 POP DUP3 DUP3 DIV DUP5 EQ DUP4 ISZERO OR PUSH2 0x9AD JUMPI PUSH2 0x9AC PUSH2 0x8DB JUMP JUMPDEST JUMPDEST POP SWAP3 SWAP2 POP POP JUMP JUMPDEST PUSH32 0x42696420616D6F756E74206973206C657373207468616E207468652063757272 PUSH1 0x0 DUP3 ADD MSTORE PUSH32 0x656E742070726963650000000000000000000000000000000000000000000000 PUSH1 0x20 DUP3 ADD MSTORE POP JUMP JUMPDEST PUSH1 0x0 PUSH2 0xA10 PUSH1 0x29 DUP4 PUSH2 0x7CC JUMP JUMPDEST SWAP2 POP PUSH2 0xA1B DUP3 PUSH2 0x9B4 JUMP JUMPDEST PUSH1 0x40 DUP3 ADD SWAP1 POP SWAP2 SWAP1 POP JUMP JUMPDEST PUSH1 0x0 PUSH1 0x20 DUP3 ADD SWAP1 POP DUP2 DUP2 SUB PUSH1 0x0 DUP4 ADD MSTORE PUSH2 0xA3F DUP2 PUSH2 0xA03 JUMP JUMPDEST SWAP1 POP SWAP2 SWAP1 POP JUMP INVALID LOG2 PUSH5 0x6970667358 0x22 SLT KECCAK256 0xA9 SLOAD 0xB4 INVALID 0xF6 SHR ORIGIN DUP1 0xC4 0x1E EXP DUP14 0xD3 SUB 0x49 0xA6 PUSH23 0x5907B9C882DCC7E4100175CDCC73FE64736F6C63430008 SLT STOP CALLER "},"methodIdentifiers":{"auctionEndTime()":"4b449cba","auctionEnded()":"86433374","auctionStartTime()":"eb54f9ec","bid()":"1998aeef","getCurrentPrice()":"eb91d37e","initialPrice()":"1d0806ae","numBlocksAuctionOpen()":"3103ea62","offerPriceDecrement()":"d3642a88","reservePrice()":"db2e1eed","seller()":"08551a53"}}}}}