{
  "_format": "hh-sol-artifact-1",
  "contractName": "BasicDutchAuction",
  "sourceName": "contracts/BasicDutchAuction.sol",
  "abi": [
    {
      "inputs": [
        {
          "internalType": "uint256",
          "name": "_reservePrice",
          "type": "uint256"
        },
        {
          "internalType": "uint256",
          "name": "_numBlocksAuctionOpen",
          "type": "uint256"
        },
        {
          "internalType": "uint256",
          "name": "_offerPriceDecrement",
          "type": "uint256"
        }
      ],
      "stateMutability": "nonpayable",
      "type": "constructor"
    },
    {
      "anonymous": false,
      "inputs": [
        {
          "indexed": true,
          "internalType": "address",
          "name": "bidder",
          "type": "address"
        },
        {
          "indexed": false,
          "internalType": "uint256",
          "name": "refundAmount",
          "type": "uint256"
        },
        {
          "indexed": false,
          "internalType": "uint256",
          "name": "contractBalance",
          "type": "uint256"
        }
      ],
      "name": "RefundInfo",
      "type": "event"
    },
    {
      "inputs": [],
      "name": "auctionEndTime",
      "outputs": [
        {
          "internalType": "uint256",
          "name": "",
          "type": "uint256"
        }
      ],
      "stateMutability": "view",
      "type": "function"
    },
    {
      "inputs": [],
      "name": "auctionEnded",
      "outputs": [
        {
          "internalType": "bool",
          "name": "",
          "type": "bool"
        }
      ],
      "stateMutability": "view",
      "type": "function"
    },
    {
      "inputs": [],
      "name": "auctionStartTime",
      "outputs": [
        {
          "internalType": "uint256",
          "name": "",
          "type": "uint256"
        }
      ],
      "stateMutability": "view",
      "type": "function"
    },
    {
      "inputs": [],
      "name": "bid",
      "outputs": [],
      "stateMutability": "payable",
      "type": "function"
    },
    {
      "inputs": [],
      "name": "getCurrentPrice",
      "outputs": [
        {
          "internalType": "uint256",
          "name": "",
          "type": "uint256"
        }
      ],
      "stateMutability": "view",
      "type": "function"
    },
    {
      "inputs": [],
      "name": "initialPrice",
      "outputs": [
        {
          "internalType": "uint256",
          "name": "",
          "type": "uint256"
        }
      ],
      "stateMutability": "view",
      "type": "function"
    },
    {
      "inputs": [],
      "name": "numBlocksAuctionOpen",
      "outputs": [
        {
          "internalType": "uint256",
          "name": "",
          "type": "uint256"
        }
      ],
      "stateMutability": "view",
      "type": "function"
    },
    {
      "inputs": [],
      "name": "offerPriceDecrement",
      "outputs": [
        {
          "internalType": "uint256",
          "name": "",
          "type": "uint256"
        }
      ],
      "stateMutability": "view",
      "type": "function"
    },
    {
      "inputs": [],
      "name": "reservePrice",
      "outputs": [
        {
          "internalType": "uint256",
          "name": "",
          "type": "uint256"
        }
      ],
      "stateMutability": "view",
      "type": "function"
    },
    {
      "inputs": [],
      "name": "seller",
      "outputs": [
        {
          "internalType": "address payable",
          "name": "",
          "type": "address"
        }
      ],
      "stateMutability": "view",
      "type": "function"
    }
  ],
  "bytecode": "0x60806040523480156200001157600080fd5b5060405162000e4038038062000e40833981810160405281019062000037919062000268565b6200005367bfa5582d24f44f7560c01b6200022560201b60201c565b6200006f67f7a0c2a9ccd289d160c01b6200022560201b60201c565b336000806101000a81548173ffffffffffffffffffffffffffffffffffffffff021916908373ffffffffffffffffffffffffffffffffffffffff160217905550620000cb676c9928393075868860c01b6200022560201b60201c565b82600181905550620000ee67a96c0f68ccda189d60c01b6200022560201b60201c565b8160028190555062000111673995b9419145b91c60c01b6200022560201b60201c565b80600381905550620001346729a74dce63bbfc7c60c01b6200022560201b60201c565b4360058190555062000157671a79f98bcc27604c60c01b6200022560201b60201c565b600254600554620001699190620002f3565b6006819055506200018b67705041b95b705c2960c01b6200022560201b60201c565b60035460016002546200019f91906200032e565b620001ab919062000369565b600154620001ba9190620002f3565b600481905550620001dc67cfd94b5834a59cc660c01b6200022560201b60201c565b600454600781905550620002016725c54502d7c34bf560c01b6200022560201b60201c565b6000600860006101000a81548160ff021916908315150217905550505050620003b4565b50565b600080fd5b6000819050919050565b62000242816200022d565b81146200024e57600080fd5b50565b600081519050620002628162000237565b92915050565b60008060006060848603121562000284576200028362000228565b5b6000620002948682870162000251565b9350506020620002a78682870162000251565b9250506040620002ba8682870162000251565b9150509250925092565b7f4e487b7100000000000000000000000000000000000000000000000000000000600052601160045260246000fd5b600062000300826200022d565b91506200030d836200022d565b9250828201905080821115620003285762000327620002c4565b5b92915050565b60006200033b826200022d565b915062000348836200022d565b9250828203905081811115620003635762000362620002c4565b5b92915050565b600062000376826200022d565b915062000383836200022d565b925082820262000393816200022d565b91508282048414831517620003ad57620003ac620002c4565b5b5092915050565b610a7c80620003c46000396000f3fe6080604052600436106100915760003560e01c80638643337411610059578063864333741461014c578063d3642a8814610177578063db2e1eed146101a2578063eb54f9ec146101cd578063eb91d37e146101f857610091565b806308551a53146100965780631998aeef146100c15780631d0806ae146100cb5780633103ea62146100f65780634b449cba14610121575b600080fd5b3480156100a257600080fd5b506100ab610223565b6040516100b89190610747565b60405180910390f35b6100c9610247565b005b3480156100d757600080fd5b506100e06105a6565b6040516100ed919061077b565b60405180910390f35b34801561010257600080fd5b5061010b6105ac565b604051610118919061077b565b60405180910390f35b34801561012d57600080fd5b506101366105b2565b604051610143919061077b565b60405180910390f35b34801561015857600080fd5b506101616105b8565b60405161016e91906107b1565b60405180910390f35b34801561018357600080fd5b5061018c6105cb565b604051610199919061077b565b60405180910390f35b3480156101ae57600080fd5b506101b76105d1565b6040516101c4919061077b565b60405180910390f35b3480156101d957600080fd5b506101e26105d7565b6040516101ef919061077b565b60405180910390f35b34801561020457600080fd5b5061020d6105dd565b60405161021a919061077b565b60405180910390f35b60008054906101000a900473ffffffffffffffffffffffffffffffffffffffff1681565b61025b67f9f44d552f4cadae60c01b610703565b61026f67d414921fb643639a60c01b610703565b61028367a0d068c7c4741fa760c01b610703565b61029767e41f715ffa47f2ef60c01b610703565b600860009054906101000a900460ff16156102e7576040517f08c379a00000000000000000000000000000000000000000000000000000000081526004016102de90610829565b60405180910390fd5b6102fb67d70afd65b084bbe360c01b610703565b61030f67f691a2167fa8229660c01b610703565b610323672e069a2dc21e3ede60c01b610703565b6006544311156103755761034167a082f71eba6eaee360c01b610703565b6103556791fa69f5821f698060c01b610703565b6001600860006101000a81548160ff02191690831515021790555061038a565b61038967e41c765fefc9affd60c01b610703565b5b61039e67463f440e0cd9dbfd60c01b610703565b6103b16684841744ba636660c01b610703565b6103c5670b24ce234b2e73a460c01b610703565b60065443111561040a576040517f08c379a0000000000000000000000000000000000000000000000000000000008152600401610401906108bb565b60405180910390fd5b61041e6778e332ccd0d3943860c01b610703565b61043267a20e18665aed8ac560c01b610703565b61044667514ce381e7eed34e60c01b610703565b61045a67ad9459d701f0d35360c01b610703565b60035460016005544361046d919061090a565b610477919061093e565b6104819190610972565b60045461048e919061090a565b3410156104d0576040517f08c379a00000000000000000000000000000000000000000000000000000000081526004016104c790610a26565b60405180910390fd5b6104e46733ffd8ee5f2c9ca060c01b610703565b6104f86767f92265542ad0ce60c01b610703565b61050c67c359bf0e63ca87f360c01b610703565b60008054906101000a900473ffffffffffffffffffffffffffffffffffffffff1673ffffffffffffffffffffffffffffffffffffffff166108fc6007549081150290604051600060405180830381858888f19350505050158015610574573d6000803e3d6000fd5b5061058967761c002b3f88f6e460c01b610703565b6001600860006101000a81548160ff021916908315150217905550565b60045481565b60025481565b60065481565b600860009054906101000a900460ff1681565b60035481565b60015481565b60055481565b60006105f3671dd21734e3a48ea560c01b610703565b610607675486f18a1093bab160c01b610703565b61061b67b536078053afc18860c01b610703565b60006005544361062b919061090a565b9050610641672f7de1fb4d9c2d7060c01b610703565b6106556750d65afd85bed8a860c01b610703565b60025481106106a557610672674329bce173f2c0cd60c01b610703565b610686674b1a9240bf491e4c60c01b610703565b61069a67e87034bb8e111c2f60c01b610703565b600154915050610700565b6106b967f8ab49d41ee336cf60c01b610703565b6106cd676fbc794c26914c7d60c01b610703565b6106e16706dfe361a130d92660c01b610703565b600354816106ef9190610972565b6004546106fc919061090a565b9150505b90565b50565b600073ffffffffffffffffffffffffffffffffffffffff82169050919050565b600061073182610706565b9050919050565b61074181610726565b82525050565b600060208201905061075c6000830184610738565b92915050565b6000819050919050565b61077581610762565b82525050565b6000602082019050610790600083018461076c565b92915050565b60008115159050919050565b6107ab81610796565b82525050565b60006020820190506107c660008301846107a2565b92915050565b600082825260208201905092915050565b7f41756374696f6e2068617320616c726561647920656e64656400000000000000600082015250565b60006108136019836107cc565b915061081e826107dd565b602082019050919050565b6000602082019050818103600083015261084281610806565b9050919050565b7f41756374696f6e2068617320657863656564656420746865206d6178696d756d60008201527f206e756d626572206f6620626c6f636b73000000000000000000000000000000602082015250565b60006108a56031836107cc565b91506108b082610849565b604082019050919050565b600060208201905081810360008301526108d481610898565b9050919050565b7f4e487b7100000000000000000000000000000000000000000000000000000000600052601160045260246000fd5b600061091582610762565b915061092083610762565b9250828203905081811115610938576109376108db565b5b92915050565b600061094982610762565b915061095483610762565b925082820190508082111561096c5761096b6108db565b5b92915050565b600061097d82610762565b915061098883610762565b925082820261099681610762565b915082820484148315176109ad576109ac6108db565b5b5092915050565b7f42696420616d6f756e74206973206c657373207468616e20746865206375727260008201527f656e742070726963650000000000000000000000000000000000000000000000602082015250565b6000610a106029836107cc565b9150610a1b826109b4565b604082019050919050565b60006020820190508181036000830152610a3f81610a03565b905091905056fea2646970667358221220a954b4fef61c3280c41e0a8dd30349a6765907b9c882dcc7e4100175cdcc73fe64736f6c63430008120033",
  "linkReferences": {},
  "deployedLinkReferences": {}
}